S02B0000433A5C55736572735C4E41494C5C446F63756D656E74735C4D43555870726573736F4944455F313193
S113000000200020F90100007502000039280000DA
S1130010790200007B0200007D0200000000000065
S11300200000000000000000000000007F0200004B
S1130030810200000000000083020000850200002D
S113004011240000192400002124000029240000A8
S11300503124000039240000412400004924000018
S11300605124000059240000612400006924000088
S113007071240000792400008124000089240000F8
S11300809124000099240000A1240000A924000068
S1130090B1240000B9240000C1240000C9240000D8
S11300A0D1240000D9240000E1240000E924000048
S11300B0F1240000F92400000125000009250000B6
S11300C01125000019250000212500002925000024
S11300D03125000039250000412500004925000094
S11300E0512500005925000061250000F504000099
S11300F06925000071250000792500008125000094
S1130100892500009125000099250000A125000003
S1130110A9250000B1250000B9250000C125000073
S1130120C9250000D1250000D9250000E1250000E3
S1130130E9250000F1250000F92500000126000052
S113014009260000112600001926000021260000BF
S1130150292600003126000039260000412600002F
S1130160492600005126000059260000612600009F
S1130170692600007126000079260000812600000F
S1130180892600009126000099260000A12600007F
S1130190A9260000B1260000B9260000C1260000EF
S11301A0C9260000D1260000D9260000E12600005F
S11301B0E9260000F1260000F926000001270000CE
S11301C0092700001127000019270000212700003B
S11301D01C38000000000020080000001C3800004B
S11301E000E0FF1F000000000800002008010000DC
S11301F000E0FF1F0000000010B572B601F050FED1
S11302000D4B07E003F10C049A685968186800F074
S113021019F82346094A9342F4D306E01C46596868
S113022054F8080B00F01DF82346054A9342F5D311
S113023062B602F0AFFEFEE7D0010000E801000064
S1130240F8010000002393420AD210B450F8044B82
S113025041F8044B04339342F8D35DF8044B7047E0
S11302607047002303E0002240F8042B04338B4240
S1130270F9D37047FEE7FEE7FEE7FEE7FEE7FEE799
S1130280FEE7FEE7FEE7FEE7FFFFFFFFFFFFFFFFDE
S1130290FFFFFFFFFFFFFFFFFFFFFFFFFFFFFFFF6A
S11302A0FFFFFFFFFFFFFFFFFFFFFFFFFFFFFFFF5A
S11302B0FFFFFFFFFFFFFFFFFFFFFFFFFFFFFFFF4A
S11302C0FFFFFFFFFFFFFFFFFFFFFFFFFFFFFFFF3A
S11302D0FFFFFFFFFFFFFFFFFFFFFFFFFFFFFFFF2A
S11302E0FFFFFFFFFFFFFFFFFFFFFFFFFFFFFFFF1A
S11302F0FFFFFFFFFFFFFFFFFFFFFFFFFFFFFFFF0A
S1130300FFFFFFFFFFFFFFFFFFFFFFFFFFFFFFFFF9
S1130310FFFFFFFFFFFFFFFFFFFFFFFFFFFFFFFFE9
S1130320FFFFFFFFFFFFFFFFFFFFFFFFFFFFFFFFD9
S1130330FFFFFFFFFFFFFFFFFFFFFFFFFFFFFFFFC9
S1130340FFFFFFFFFFFFFFFFFFFFFFFFFFFFFFFFB9
S1130350FFFFFFFFFFFFFFFFFFFFFFFFFFFFFFFFA9
S1130360FFFFFFFFFFFFFFFFFFFFFFFFFFFFFFFF99
S1130370FFFFFFFFFFFFFFFFFFFFFFFFFFFFFFFF89
S1130380FFFFFFFFFFFFFFFFFFFFFFFFFFFFFFFF79
S1130390FFFFFFFFFFFFFFFFFFFFFFFFFFFFFFFF69
S11303A0FFFFFFFFFFFFFFFFFFFFFFFFFFFFFFFF59
S11303B0FFFFFFFFFFFFFFFFFFFFFFFFFFFFFFFF49
S11303C0FFFFFFFFFFFFFFFFFFFFFFFFFFFFFFFF39
S11303D0FFFFFFFFFFFFFFFFFFFFFFFFFFFFFFFF29
S11303E0FFFFFFFFFFFFFFFFFFFFFFFFFFFFFFFF19
S11303F0FFFFFFFFFFFFFFFFFFFFFFFFFFFFFFFF09
S1130400FFFFFFFFFFFFFFFFFFFFFFFFFEFFFFFFF9
S113041080B500AF02F0B8FD02F071FD02F076FD88
S113042002F066FD00F092F800F0F4F800F0F8F93C
S1130430284B1B6840F6E44203FB02F2264BA3FB65
S11304400213D21A52081344DB0A41F2941202FB3B
S113045003F3224AA2FB03239B09214A1360204B86
S11304601B68462202FB03F3A3F59E33A3F598739E
S11304701C4AA2FB03239B0A19331B4A13601B4B20
S113048064221A70194B1B7800220421184801F0C9
S113049023FC002300220321154801F01DFC134B0B
S11304A01B7800220221124801F016FC00230022CE
S11304B001210F4801F010FC0C4B1B780022002195
S11304C00B4801F009FC0121094802F081F902F00E
S11304D09BF9ABE72400002001011000F119760517
S11304E028000020394087972C0000200D010020AF
S11304F00080034080B500AF4FF400710F4802F054
S11305008DFC0F4B01221A70BFF34F8F00BF0D4BB0
S11305101B6801330B4A1360094B00221A70094B04
S11305201B68B3F57A7F07D3074B1B680133064A70
S11305301360044B00221A6000BF80BD008003409A
S11305400C010020340000203800002080B592B057
S113055002AF00233B7102237B710023BB71002394
S1130560FB7100233B7201237B720223BB720023C5
S1130570FB7200233B7300237B730223BB730223B0
S1130580FB7300233B7400237B740023BB7403239D
S1130590FB7402233B7500237B750023BB7500238A
S11305A0FB7504233B7602237B760023BB76002372
S11305B0FB7600233B7705237B770223BB7700235D
S11305C0FB77002387F82030002387F8213007F1D8
S11305D02403184601F0BAF907F1240319460C481C
S11305E001F03AF9042000F099FE0346391D019305
S11305F042F6E063009300230622054801F0E0F987
S11306000121034802F0C7F800BF4037BD4680BD52
S11306100080034080B588B000AF07F11803184686
S113062000F050FA01233B762A23BB8300237B7618
S113063007F118031946794800F0C0F90022012196
S1130640764802F01FFA01220121744802F024F9CD
S113065000220121714802F061F908216F4802F07B
S113066057FA002202216D4802F00CFA01220221FD
S11306706A4802F011F900220221684802F04EF99A
S11306801021664802F044FA07F11003184600F0FE
S11306902DFB0A233B820323BB7407F110031A4684
S11306A001215E4800F0FAFA012201215B4802F0C0
S11306B077F907F110031A460221584800F0EEFAC0
S11306C001220221554802F06BF90022022153480D
S11306D002F02AF804233B800023BB7000233B7103
S11306E000233B814FF6FF73FB8000237B810023B3
S11306F03B733B461A460221484800F01BFB01228B
S11307000221464802F010F800220321434802F077
S11307100BF805233B803B461A4603213F4800F073
S113072009FB012203213D4801F0FEFF00220821BC
S11307303A4801F0F9FF0C233B803B461A46082156
S1130740364800F0F7FA01220821344801F0ECFFA2
S113075000220921314801F0E7FF09233B800123EE
S1130760FB703B461A4609212C4800F0E3FA0122AB
S113077009212A4801F0D8FF0023FB70002201213F
S1130780264801F0D1FF01233B803B461A46012154
S1130790224800F0CFFA01220121204801F0C4FFD1
S11307A0002200211D4801F0BFFF00233B803B468F
S11307B01A460021194800F0BDFA01220021174809
S11307C001F0B2FF00220B21144801F0ADFF072312
S11307D03B800223FB703B461A460B210F4800F076
S11307E0A9FA01220B210D4801F09EFF0023FB70A2
S11307F000220A21094801F097FF0B233B803B4666
S11308001A460A21054800F095FA01220A210348F4
S113081001F08AFF00BF2037BD4680BD00C00540FF
S113082080B500AF20214A4802F046FA40214848EA
S113083002F042FA0121464802F0FCF80221444841
S113084002F0F8F800BF424802F0B0F9034603F0A2
S113085020039BB2202BF6D100BF3D4802F0A6F93D
S1130860034603F040039BB2402BF6D109213848DC
S113087001F07EFF03461A46364B1A60354B1B685F
S1130880DB08354A13600121314801F071FF03464A
S11308901A46304B1A602F4B1B68DB082F4A136033
S11308A000212B4801F064FF03461A46294B1A60C5
S11308B0284B1B68DB082A4A13600221244801F0F4
S11308C057FF03461A46234B1A60224B1B68DB086A
S11308D0244A136003211E4801F04AFF03461A46C6
S11308E01C4B1A601B4B1B68DB081F4A1360082152
S11308F0174801F03DFF03461A46164B1A60154B84
S11309001B68DB08194A13600A21114801F030FF03
S113091003461A460F4B1A600E4B1B68DB08144A39
S113092013600B210A4801F023FF03461A46094BC2
S11309301A60084B1B68DB080E4A13602021044828
S113094002F0BAF94021024802F0B6F900BF80BDB6
S113095000C00540300000201400002018000020D2
S11309601C000020080000200C00002010000020C3
S1130970200000202400002080B584B000AF7860FF
S11309800023FB6006E00B4A7B68934206D0FB68B9
S11309900133FB60FB68002BF5D000E000BFFB686F
S11309A0002B02D0044801F039FBFB6818461037CD
S11309B0BD4680BD00C00540F433000080B584B05E
S11309C000AF786039603B68002B02D13B4801F0EE
S11309D025FB7868FFF7D0FF394B184601F042FF3A
S11309E07B681B889BB223F00703FB813B681B7861
S11309F09BB203F007039AB2FB891343FB817B6824
S1130A00FA891A803B685B78002B08D07B685B8886
S1130A109BB243F040039AB27B685A8007E07B683C
S1130A205B889BB223F040039AB27B685A807B6850
S1130A30B3F89C309AB247F607431340FB813B68F6
S1130A409B881B019BB203F47C739AB2FB8913430A
S1130A50FB813B68DB78012B06D1FB896FEA4343BA
S1130A606FEA5343FB8107E03B68DB78022B03D139
S1130A70FB8943F00803FB817B68FA89A3F89C2077
S1130A803B689B78012B0AD17B68B3F8A8309BB2F2
S1130A9043F040039AB27B68A3F8A82009E07B687E
S1130AA0B3F8A8309BB223F040039AB27B68A3F852
S1130AB0A82000BF1037BD4680BD00BF2834000009
S1130AC01C00381080B582B000AF78607B68002BC2
S1130AD002D10D4801F0A2FA06220021786802F042
S1130AE060FA7B6805221A707B6801225A707B6861
S1130AF000229A707B680022DA707B681A229A803E
S1130B0000BF0837BD4680BD4834000080B584B0BE
S1130B1000AF786039603B68002B02D12C4801F0AB
S1130B207DFA7B685B889BB223F03F03FB813B68C3
S1130B301B8803F03F039AB2FB891343FB817B6854
S1130B40FA895A807B68B3F89E309BB223F44053F1
S1130B50FB813B68DB78012B03D1FB8943F4005311
S1130B60FB813B681B79012B03D1FB8943F4805340
S1130B70FB817B68FA89A3F89E207B68B3F8A630D2
S1130B809BB223F00303FB813B689B789BB203F089
S1130B9003039AB2FB891343FB817B68FA89A3F8A8
S1130BA0A6207B68B3F8A8309BB223F00703FB812F
S1130BB03B68DB8803F007039AB2FB891343FB818C
S1130BC07B68FA89A3F8A82000BF1037BD4680BD12
S1130BD06834000080B584B000AF786039603B6849
S1130BE0002B02D12C4801F019FA7B68B3F89E302F
S1130BF09BB2C3F30D03FB813B68DB78012B05D16A
S1130C00FB896FEA43436FEA5343FB813B681B79DB
S1130C10012B03D1FB8943F48043FB817B68FA8970
S1130C20A3F89E207B68B3F8A6309BB223F47C53D0
S1130C3023F00C03FB813B681B881B029BB203F46B
S1130C407C539AB23B689B789BB29B009BB203F0A7
S1130C500C039BB213439AB2FB891343FB817B6859
S1130C60FA89A3F8A6207B68B3F8A8309BB223F0D6
S1130C703803FB813B68DB88DB009BB203F038035D
S1130C809AB2FB891343FB817B68FA89A3F8A820F5
S1130C9000BF1037BD4680BD8834000080B584B0E5
S1130CA000AFF8600B467A607B817B68002B02D131
S1130CB00D4801F0B3F97B8903F001039BB2002BCB
S1130CC003D07968F868FFF721FF7B8903F00203FA
S1130CD09BB2002B03D07968F868FFF77BFF00BF55
S1130CE01037BD4680BD00BFA834000080B582B077
S1130CF000AF78607B68002B02D10D4801F08EF9BB
S1130D0008220021786802F04CF97B6804221A80DA
S1130D107B6800229A707B680022DA707B6800226C
S1130D201A717B680022DA8000BF0837BD4680BD97
S1130D30C834000080B586B000AFF8600B467A6016
S1130D407B817B68002B02D18D4801F067F97B8998
S1130D500F2B02D98B4801F061F97B681B88032BA8
S1130D6007D97B681B88072B29D97B681B880B2B29
S1130D7025D87B689B78002B0FD0FB681B889AB220
S1130D807B681B885B089BB219467F4B33F8113094
S1130D9013439AB2FB681A8046E0FB681B889AB238
S1130DA07B681B885B089BB21946774B33F811307C
S1130DB0DB439BB213409AB2FB681A8034E07B6831
S1130DC01B88032B03D97B681B88072B07D97B68F7
S1130DD01B880B2B28D97B681B880F2B24D87B6896
S1130DE09B78002B0FD0FB685B889AB27B681B88CA
S1130DF05B089BB21946644B33F8113013439AB223
S1130E00FB685A8010E0FB685B889AB27B681B8899
S1130E105B089BB219465C4B33F81130DB439BB241
S1130E2013409AB2FB685A807B89072B1BD8FB6856
S1130E309B889AB27B895B00032101FA03F39BB27E
S1130E40DB439BB21340FB827B681B791A467B8988
S1130E505B0002FA03F39AB2FB8A1343FB82FB683A
S1130E60FA8A9A8023E07B890F2B20D87B89083B60
S1130E707B81FB68DB889AB27B895B00032101FAE2
S1130E8003F39BB2DB439BB21340FB827B681B7969
S1130E901A467B895B0002FA03F39AB2FB8A134376
S1130EA0FB82FB68FA8ADA807B8908337B817B8941
S1130EB0032B1BD8FB681B899AB27B899B000F21EB
S1130EC001FA03F39BB2DB439BB21340FB827B68C2
S1130ED01B881A467B899B0002FA03F39AB2FB8AA9
S1130EE01343FB82FB68FA8A1A8173E07B89072B20
S1130EF021D87B89043B7B81FB685B899AB27B891F
S1130F009B000F2101FA03F39BB2DB439BB2134016
S1130F10FB827B681B881A467B899B0002FA03F3D9
S1130F209AB2FB8A1343FB82FB68FA8A5A817B8953
S1130F3004337B814EE07B890B2B27D87B89083BCC
S1130F407B81FB689B899AB27B899B000F2101FA04
S1130F5003F39BB2DB439BB21340FB827B681B8889
S1130F601A467B899B0002FA03F39AB2FB8A134365
S1130F70FB82FB68FA8A9A817B8908337B8129E0AA
S1130F80F834000018350000E83400007B890F2B8A
S1130F9020D87B890C3B7B81FB68DB899AB27B89F7
S1130FA09B000F2101FA03F39BB2DB439BB2134076
S1130FB0FB827B681B881A467B899B0002FA03F339
S1130FC09AB2FB8A1343FB82FB68FA8ADA817B8933
S1130FD00C337B817B897A681189FA681C335B0046
S1130FE013440A469A807B897A68D188FA682C333C
S1130FF05B0013440A469A807B897A685189FA68AF
S11310003C335B0013440A469A807B681B88072B99
S11310101FD8FB68B3F8A0309AB27B681B885B00CA
S1131020032101FA03F39BB2DB439BB21340FB821F
S11310307B68DB781A467B681B885B0002FA03F343
S11310409AB2FB8A1343FB82FB68FA8AA3F8A020B6
S113105026E07B681B880F2B22D8FB68B3F8A230EC
S11310609AB27B681B88083B9BB25B00032101FAA0
S113107003F39BB2DB439BB21340FB827B68DB78B8
S11310801A467B681B88083B9BB25B0002FA03F399
S11310909AB2FB8A1343FB82FB68FA8AA3F8A22064
S11310A07B681B7B002B0ED0FB68B3F8A4309AB28C
S11310B07B89012101FA03F39BB213439AB2FB68C3
S11310C0A3F8A42011E0FB68B3F8A4309BB21AB2D1
S11310D07B89012101FA03F31BB2DB431BB21340EA
S11310E01BB29AB2FB68A3F8A42000BF1837BD4610
S11310F080BD00BF80B500AF054B1B68002B02D13B
S1131100044800F08BFF024B1B68184680BD00BFEB
S11311103C0000204835000080B582B000AFFFF7E6
S1131120E9FF78601F4B1B78DBB2DB08DBB203F00E
S11311300703FB70FB787A6822FA03F37B60194B90
S11311405B78DBB21B09DBB203F00303BB70BB7833
S1131150002B21D0FB78072B14D0072B19DC052B8F
S113116002DC002B03DA14E0062B04D011E07B68C8
S11311705B097B6011E07B680B4AA2FB03231B091C
S11311807B600AE07B68094AA2FB0323DB087B60DF
S113119003E000237B6000E000BF7B68184608374B
S11311A0BD4680BD00400640CDCCCCCCABAAAAAA9B
S11311B080B483B000AF0E4B9B79DBB203F0010324
S11311C0002B03D10B4B1B687B600AE00A4B1A68A7
S11311D0074B1B7ADBB25B0803F0070322FA03F325
S11311E07B607B6818460C37BD465DF8047B70470E
S11311F000400640000000200400002080B582B0BA
S113120000AF094B9B79DBB203F01003002B03D131
S1131210FFF782FF786002E0044B1B687B607B6809
S113122018460837BD4680BD004006400000002037
S113123080B582B000AF0C4B1B78DBB25BB2002BE5
S11312400ADA0A4B1B68002B02D1094800F0E6FEBB
S1131250064B1B687B6001E000237B607B681846BB
S11312600837BD4680BD00BF005006403C0000204A
S11312706C35000080B582B000AF114B1B78DBB237
S11312805BB2002B14DA0F4B1B68002B02D10E4803
S113129000F0C4FE0A4B9B78DBB223F03F03FB70E3
S11312A0084B1B68FA789209D2B2D3407B6001E004
S11312B000237B607B6818460837BD4680BD00BFAD
S11312C0005006403C0000208C35000080B582B000
S11312D000AF114B1B689B0C03F00303002B02D0DF
S11312E0032B0CD00FE0FFF7A3FF0346B3F5004F29
S11312F002D14FF4004300E000237B6006E04FF48A
S11313007A737B6002E000237B6000BF7B68184631
S11313100837BD4680BD00BF0070044080B584B06E
S113132000AF0346FB71FB790E2B6ED801A252F875
S113133023F000BF711300000B140000AD13000074
S1131340AD1300008F130000CB130000FB1300004B
S113135003140000D3130000DB130000E3130000A8
S1131360EB1300000B1400000B140000F313000037
S113137000F056F80246294B03F580535B6C1B0FB3
S113138003F00F030133B2FBF3F3FB6040E000F022
S113139047F80246214B03F580535B6C1B0E03F0A8
S11313A00F030133B2FBF3F3FB6031E000F038F8D4
S11313B002461A4B03F580535B6C1B0C03F00F03BE
S11313C00133B2FBF3F3FB6022E0FFF77FFFF86029
S11313D01EE001F09DFCF8601AE000F095F8F8605A
S11313E016E000F04FF8F86012E000F0A5F8F8609D
S11313F00EE04FF47A73FB600AE0FFF73BFFF860FE
S113140006E0FFF715FFF86002E00023FB6000BF71
S1131410FB6818461037BD4680BD00BF007004400D
S113142080B582B000AF164B9B79DBB29B0803F00A
S113143003033B603B68032B1AD801A252F823F044
S113144059140000611400006914000051140000D4
S113145000F072F878600EE000F014F878600AE0AA
S1131460FFF7A6FE786006E0FFF744FE786002E02E
S113147000237B6000BF7B6818460837BD4680BDEB
S11314800040064080B584B000AF1D4B5B78DBB2F2
S113149003F00203002B06D1194B9B79DBB203F056
S11314A02003002B02D00023FB6024E0FFF7A6FEFC
S11314B0B860BB68002B02D1BB68FB601BE0104B1B
S11314C0DB78DBB25B09DBB203F00303FB710C4B8B
S11314D0DB78DBB2DB09DBB203F00103BB71FA7921
S11314E0BB7908495200134431F813301A46BB68DB
S11314F002FB03F3FB60FB6818461037BD4680BD52
S113150000400640CC35000080B582B000AF094BE6
S11315101B78DBB203F00203002B02D100237B60B3
S113152002E0FFF745FE78607B6818460837BD4641
S113153080BD00BF0040064080B584B000AF1B4BA7
S11315409B79DBB203F04003002B02D10023FB6044
S113155027E001F0D6FBB860BB68002B02D1144829
S113156000F05CFD114B1B79DBB203F00703DBB227
S11315700133FB71FB79BA68B2FBF3F3BB600B4B2D
S11315805B79DBB203F01F03DBB21033BB71BA79B2
S1131590BB6802FB03F3BB60BB685B08BB60BB6852
S11315A0FB60FB6818461037BD4680BD004006400E
S11315B0AC35000080B584B000AF78600423BB6014
S11315C00023FB6009E00E4AFB6852F823307A6876
S11315D09A4207D0FB680133FB60FA68BB689A4201
S11315E0F1D300E000BFFA68BB689A4202D3054811
S11315F000F014FDFB6818461037BD4680BD00BFDF
S1131600DC350000FC35000080B586B000AF7860A2
S113161039600023FB7500233B610023FB607B687A
S11316203F4A93420AD07B683E4A934206D07B6885
S11316303D4A934202D03D4800F0F0FC7B689B6D2C
S1131640FB60FB6843F00803FB607B685B6E3B61F7
S11316500023FB750BE0FB7DDB000533012202FA5E
S113166003F33A6913433B61FB7D0133FB75FA7D58
S11316707B682B498B420DD07B682A498B4207D06B
S11316807B6829498B4201D1042304E07F2302E0D3
S1131690012300E004239342DDD87B683A695A664B
S11316A07B68D3F88C303B613B6943F0B4033B6106
S11316B03B6803F08003002B03D03B6943F4F853E9
S11316C03B613B6803F07003002B1ED03B6943F47D
S11316D0F8133B613B6803F01003002B03D0FB6855
S11316E043F01003FB603B6803F02003002B03D09E
S11316F0FB6843F02003FB603B6803F04003002BCE
S113170003D0FB6843F04003FB607B68FA689A658A
S11317107B683A69C3F88C2000BF1837BD4680BD8A
S11317200080034000900340006002402436000023
S113173080B586B000AF7860396000237B610023F8
S11317403B617B68404A93420ED07B683F4A934298
S113175008D07B683E4A934201D1082305E04FF04C
S1131760FF3302E0022300E00823FB7397F90F30F4
S1131770B3F1FF3F02D1374800F050FC7B68D3F847
S11317808C3043F004027B68C3F88C207B685B6E6A
S11317903B6100237B610BE07B69DB0005330122A5
S11317A002FA03F33A6913433B617B6901337B61BA
S11317B097F90F305B087A699A42EDD37B683A69EE
S11317C05A667B68D3F898303B6197F90F30012251
S11317D002FA03F35B423A6913403B6197F90F3015
S11317E04FF0FF3202FA03F3DA433B6813403A69DD
S11317F013433B617B683A69C3F898207B689B6D0F
S11318003B613B6803F48073002B04D03B6943F0D5
S113181002033B6103E03B6923F002033B613B6845
S113182003F40073002B04D03B6943F001033B61D4
S113183003E03B6923F001033B617B683A699A65E5
S113184000BF1837BD4680BD0080034000900340B0
S1131850006002406036000080B584B000AF78605C
S113186039603B68002B02D1364800F0D7FB3B6857
S11318705B6803F0F003002B01D101235DE078687D
S1131880FFF798FE0346304A52F82330184601F019
S113189059FA3B681B7B5B0103F0600343F00502CC
S11318A07B685A653B685B6819467868FFF7ACFE4D
S11318B03B689B6819467868FFF73AFF3B681B78DA
S11318C003F007027B681A603B685B789B01DAB21D
S11318D03B689B7E5B0203F400731A437B68C3F886
S11318E084203B681B7E1A467B68DA653B685B7E16
S11318F01A467B681A673B685A697B68DA663B68F4
S11319009B7B9B01DAB23B681B6903F03F031A43DC
S11319107B689A667B68DB6FFB60FB6823F470630B
S1131920FB603B685B7B1B0203F47063FA68134340
S1131930FB607B68FA68DA67002318461037BD46F7
S113194080BD00BF80360000EC35000080B582B059
S113195000AF78607B68002B02D1184800F05EFB72
S11319601C220021786801F01CFB7B6800221A709D
S11319707B6800225A707B6880225A607B68002250
S11319809A607B6800221A737B6800225A737B6812
S113199001229A737B6800221A617B6800225A61D3
S11319A07B6800221A767B6800225A767B680022C4
S11319B09A7600BF0837BD4680BD00BF9836000048
S11319C080B58AB000AFF860B96011461A460B467C
S11319D0FB711346BB71BB68002B02D16D4800F04C
S11319E01DFB7B6B002B02D16B4800F017FB3B6B9C
S11319F0002B02D1694800F011FBFB79002B02D1C6
S1131A00674800F00BFBFB68664A93420AD0FB6808
S1131A10654A934206D0FB68644A934202D0644804
S1131A2000F0FCFAFB681B6803F007037A6B22FAE8
S1131A3003F37B61BB79012B0CD1FB681B6843F07A
S1131A402002FB681A603B6B5B007A69B2FBF3F31C
S1131A507B620BE0FB681B6823F02002FB681A60C2
S1131A607A693B6BB2FBF3F3013B7B627B6AB3F5B0
S1131A70803F01D3012329E1FB687A6A9A6000233D
S1131A80FB761DE1BB689B78642B01D901231DE122
S1131A90BB79002B02D0BB79012B3FD1BB681B78EB
S1131AA0FA680133DB0013445B683B613B6923F054
S1131AB03C033B61BB685B789B003A6913433B6121
S1131AC03B6943F020033B61BB681B78FA68013330
S1131AD0DB0013443A695A60BB689B78002B02D13F
S1131AE000233B6211E0BB689B781A467B6A02FBC9
S1131AF003F3304AA2FB03235B093B623A6A7B6A25
S1131B009A4202D37B6A01333B62BB681B78FA6852
S1131B100133DB0013443A6A9A60CBE0BB681B785C
S1131B201946FB681F4A93420ED0FB681E4A934233
S1131B3008D0FB681D4A934201D1042305E06FF0ED
S1131B40004302E0012300E004238B4201D8012377
S1131B50BCE0BB68DB78642B01D90123B6E0BB6829
S1131B60DB78002B02D10023FB610AE0BB68DB7841
S1131B701A467B6A02FB03F30E4AA2FB03235B09AA
S1131B80FB61BB689B78002B16D100233B620023CA
S1131B90FB6123E0B8360000DC36000000370000AB
S1131BA0243700000080034000900340006002409E
S1131BB0483700001F85EB51BB689B781A467B6A47
S1131BC002FB03F3434AA2FB03235B093B623A6A29
S1131BD07B6A9A4202D37B6A01333B62BB681B78FF
S1131BE05B00FA680133DB0013445B683B613B69CB
S1131BF023F03C033B61BB685B789B003A69134369
S1131C003B61BB681B785B00FA680133DB0013445B
S1131C103A695A60BB681B785B000133FA68013388
S1131C20DB0013445B683B613B6923F03C033B618D
S1131C30BB685B789B003A6913433B61BB681B78C4
S1131C405B000133FA680133DB0013443A695A60DC
S1131C50FB685A6EBB681B78DB00012101FA03F3B1
S1131C601A43FB685A66BB681B785B00FA68013349
S1131C70DB001344FA699A60BB681B785B0001338C
S1131C80F9693A6A0A44F9680133DB000B449A6043
S1131C90BB79032B0ED1BB681B7801221946F86867
S1131CA001F093F8BB681978BB681B791A46F86889
S1131CB001F062F8BB680533BB60FB7E0133FB7641
S1131CC0FA7EFB799A42FFF4DDAE002318462837EA
S1131CD0BD4680BD1F85EB5180B586B000AF7860EE
S1131CE0084611461A460346FB700B46BB70134662
S1131CF07B7000233B617B68364A93420AD07B6841
S1131D00354A934206D07B68344A934202D0344821
S1131D1000F084F97B689B68FB60BB78002B02D0E1
S1131D20BB78012B17D17B78FA6802FB03F32D4AA9
S1131D30A2FB03235B097B617A69FB689A4202D3A5
S1131D40FB6801337B61FB787A680133DB00134461
S1131D507A699A603BE0FA787B681E498B420ED020
S1131D607B681D498B4208D07B681C498B4201D19A
S1131D70042305E06FF0004302E0012300E00423A4
S1131D80934223D97B78FA6802FB03F3154AA2FB3A
S1131D9003235B097B61FB785B007A680133DB001A
S1131DA013449B683B617A69FB689A4202D3FB68DF
S1131DB001337B61FB785B00013339697A690A443A
S1131DC079680133DB000B449A6000E000BF1837E8
S1131DD0BD4680BD00800340009003400060024087
S1131DE0843700001F85EB5180B586B000AFF860E2
S1131DF0B9607A607B68002B02D1144800F00EF9B8
S1131E0001237B617B681B78002B0AD1FB685A692C
S1131E107969BB6801FA03F3DB431A40FB685A6132
S1131E200FE07B685B781A46B968F86801F02AF815
S1131E30FB685A697969BB6801FA03F31A43FB68C2
S1131E405A6100BF1837BD4680BD00BFC0370000CF
S1131E5080B500AF054B1B68054A1268114605485A
S1131E609847BFF34F8F00BF00BF80BD48000020DC
S1131E704000002000A0064080B500AF054B1B6861
S1131E80054A5268114605489847BFF34F8F00BF73
S1131E9000BF80BD480000204000002000B0064084
S1131EA080B500AF0B4BD3F888300A4A43F4700373
S1131EB0C2F88830084B4CF22052DA81064B4DF6BA
S1131EC02812DA81044B4FF4E9721A8001F009F800
S1131ED000BF80BD00ED00E00020054080B582B069
S1131EE000AF434801F019F8424801F016F842489F
S1131EF001F013F8414801F010F8414B1B88BB80F6
S1131F003B1D1A4607213F48FFF76EFF07220021B9
S1131F103D4801F01CF8072203213B4801F017F863
S1131F2000220121394801F012F805220021384825
S1131F3001F00DF805220121354801F008F80522C9
S1131F400221334801F003F805220321304800F050
S1131F50FEFF042204212E4800F0F9FF042205218B
S1131F602B4800F0F4FF00220621294800F0EFFF7F
S1131F7001220721264800F0EAFF0022102125480B
S1131F8000F0E5FF00221121224800F0E0FF0022CA
S1131F901321204800F0DBFF002218211D4800F027
S1131FA0D6FF00221D211B4800F0D1FF00221E2174
S1131FB0184800F0CCFF184B03F58053D3F80831D0
S1131FC023F07003144A43F0600302F58052C2F810
S1131FD00831114B03F58053DB690F4A23F47C135A
S1131FE002F58052D36100BF0837BD4680BD00BFF3
S1131FF0090038100A0038100C0038100D00381091
S1132000E0370000C0F00F400090044000A00440FE
S113201000C0044000D004400070044010B50F49D3
S113202004460F4801F0C0F80C49204601F0BCF802
S11320300C49D1F88030013B002BC1F8803008DB1B
S11320408B6F5A1C8A670A221A70BDE8104000F090
S11320500BB878310A2000F0C6FFF6E7C400002070
S1132060E83700004C00002018200149ABBE70473F
S1132070260002002DE9F041D5685769EB0280463D
S11320800E46144605D5384601F090F945F0100582
S1132090A061124B2B408BB1A169384601F098F92D
S11320A0002806DAE36843F08003E3604FF0FF3072
S11320B011E025F4003525F01005E560324641466F
S11320C0384601F091F920F00041761AA1690E44D6
S11320D0A6610028E6D1BDE8F08100BF100002002F
S11320E0F8B5304F3C68002851D10020F8BD236872
S11320F0B3F1805F39D1D4E9013151B10D68B5F143
S1132100805F06D1DD1C4B682B4463608B68A36041
S1132110F1E7B34207DB734505DC20464FF000537B
S113212040F80C3BE2E7634511D920464FF00055D7
S1132130666040F80C5B22F0030542199B1BA26009
S1132140033B4FF080544451C2E90131CEE761B9F9
S1132150A0EB830000F014F90130C6D04FF0005317
S1132160C4E9003604F10C00C0E72546A468002C3D
S1132170BDD10C3000F004F9431CB6D04FF000532D
S1132180C0E90036846055B938600C30AEE7C21C33
S11321909608002506F10A0C06F1030EE7E7A8608D
S11321A0F3E700BF0401002010B5FFF799FF0446D0
S11321B028B90449172201F017F9FFF755FF204603
S11321C010BD00BFFD3700002DE9F843C6683C4B45
S11321D0334004460D4690461BB902273846BDE8F5
S11321E0F883D0F81490484601F0E6F80746002832
S11321F0F3D1B8F1010F2CD0B8F1020F2ED0B8F101
S1132200000FEAD1002DE8DBB00404D52368E26AAC
S11322109A4238BFE362A169A9420EDC2368E26AEC
S1132220934238BF134622695818801AA84204DB27
S1132230206B01EB000CAC4531DC0023C4E9013315
S113224046F02006A56226F4032626F04006E66042
S1132250C4E7204600F036F80544D3E7484601F0C9
S1132260A5F8B0F1000CE26804DA42F08002E26002
S11322700127B3E72168A369E06A81422CBF5B1898
S11322801B1821699206A3EB010303D5A26A9342AA
S1132290B8BF13466345ACBFED186544B2E76D1A89
S11322A0B10744BF281AA060F10744BF9B1AEB1A78
S11322B0154448BF6360256026F02006C3E700BFCD
S11322C003001000C3689A0705D10E4B21221A603F
S11322D04FF0FF30704703F020021B0309D512B101
S11322E0806A013870470368826900691344181AC8
S11322F0F7E70AB1806A704703688269006913448A
S1132300181A70470801002010B5174A1749002011
S113231000F0A3FF4FF480734FF480620021124851
S113232000F058FF124A1349012000F096FF4FF4C1
S113233080730F484FF48062002100F04BFF0E4B76
S11323401B68022B0EDD0D4A0A49022000F085FFAE
S1132350BDE8104009484FF480734FF480620021B7
S113236000F038BF10BD00BF4C000020153800003D
S11323708800002017380000E4370000C400002063
S113238070B50B4D2B680BB90A4B2B6003302E68CC
S113239020F003043444204600F02EF810B92C60D9
S11323A0304670BD044B0C221A604FF0FF36F7E73D
S11323B0000100201001002008010020F8B50446A7
S11323C038B90B4B0B4E1F680546A74205DC28465F
S11323D0F8BDBDE8F84000F0AABF304600F0A7FF02
S11323E0002818BF4FF0FF3501343C36EDE700BF3D
S11323F0E43700004C000020044B23B1984234BF62
S11324000020012070471846704700BF10030020C9
S113241008B5FDF738FF08BD08B5FDF734FF08BD62
S113242008B5FDF730FF08BD08B5FDF72CFF08BD62
S113243008B5FDF728FF08BD08B5FDF724FF08BD62
S113244008B5FDF720FF08BD08B5FDF71CFF08BD62
S113245008B5FDF718FF08BD08B5FDF714FF08BD62
S113246008B5FDF710FF08BD08B5FDF70CFF08BD62
S113247008B5FDF708FF08BD08B5FDF704FF08BD62
S113248008B5FDF700FF08BD08B5FDF7FCFE08BD63
S113249008B5FDF7F8FE08BD08B5FDF7F4FE08BD64
S11324A008B5FDF7F0FE08BD08B5FDF7ECFE08BD64
S11324B008B5FDF7E8FE08BD08B5FDF7E4FE08BD64
S11324C008B5FDF7E0FE08BD08B5FDF7DCFE08BD64
S11324D008B5FDF7D8FE08BD08B5FDF7D4FE08BD64
S11324E008B5FDF7D0FE08BD08B5FDF7CCFE08BD64
S11324F008B5FDF7C8FE08BD08B5FDF7C4FE08BD64
S113250008B5FDF7C0FE08BD08B500F0D8FC08BD4D
S113251008B5FDF7B8FE08BD08B500F0D9FC08BD44
S113252008B5FDF7B0FE08BD08B5FDF7ACFE08BD63
S113253008B5FDF7A8FE08BD08B5FDF7A4FE08BD63
S113254008B5FDF7A0FE08BD08B5FDF79CFE08BD63
S113255008B5FDF798FE08BD08B5FDF794FE08BD63
S113256008B5FDF790FE08BD08B5FDF78CFE08BD63
S113257008B5FDF788FE08BD08B5FDF784FE08BD63
S113258008B5FDF780FE08BD08B5FDF77CFE08BD63
S113259008B5FDF778FE08BD08B5FDF774FE08BD63
S11325A008B5FDF770FE08BD08B5FDF76CFE08BD63
S11325B008B5FDF768FE08BD08B5FDF764FE08BD63
S11325C008B5FDF760FE08BD08B5FDF75CFE08BD63
S11325D008B5FDF758FE08BD08B5FDF754FE08BD63
S11325E008B5FDF750FE08BD08B5FDF74CFE08BD63
S11325F008B5FDF748FE08BD08B5FDF744FE08BD63
S113260008B5FDF740FE08BD08B5FDF73CFE08BD62
S113261008B5FDF738FE08BD08B5FDF734FE08BD62
S113262008B5FDF730FE08BD08B5FDF72CFE08BD62
S113263008B5FDF728FE08BD08B5FDF724FE08BD62
S113264008B5FDF720FE08BD08B5FDF71CFE08BD62
S113265008B5FDF718FE08BD08B5FDF714FE08BD62
S113266008B5FDF710FE08BD08B5FDF70CFE08BD62
S113267008B5FDF708FE08BD08B5FDF704FE08BD62
S113268008B5FDF700FE08BD08B5FDF7FCFD08BD63
S113269008B5FDF7F8FD08BD08B5FDF7F4FD08BD64
S11326A008B5FDF7F0FD08BD08B5FDF7ECFD08BD64
S11326B008B5FDF7E8FD08BD08B5FDF7E4FD08BD64
S11326C008B5FDF7E0FD08BD08B5FDF7DCFD08BD64
S11326D008B5FDF7D8FD08BD08B5FDF7D4FD08BD64
S11326E008B5FDF7D0FD08BD08B5FDF7CCFD08BD64
S11326F008B5FDF7C8FD08BD08B5FDF7C4FD08BD64
S113270008B5FDF7C0FD08BD08B5FDF7BCFD08BD63
S113271008B5FDF7B8FD08BD08B5FDF7B4FD08BD63
S113272008B5FDF7B0FD08BD80B483B000AF786094
S11327300B467B8013467B707B78002B0AD07B682A
S11327401B8A9AB27B88DB439BB213409AB27B68A4
S11327501A8207E07B681B8A9AB27B8813439AB279
S11327607B681A8200BF0C37BD465DF8047B704756
S113277080B483B000AF78600B467B807B887A6836
S11327800C335B0013449B889BB218460C37BD4640
S11327905DF8047B704780B485B000AF78600B4669
S11327A0FB707B681B68FB60FB6823F01803FB600D
S11327B0FB78DB0003F01803FA681343FB607B68C3
S11327C0FA681A6000BF1437BD465DF8047B704791
S11327D080B483B000AF78600B46FB70FB78002BAD
S11327E006D07B689B6D43F080027B689A6505E0A8
S11327F07B689B6D23F080027B689A6500BF0C3771
S1132800BD465DF8047B704780B483B000AF0023FD
S11328107B6000237B6003E000BF7B6801337B6047
S11328207B6843F2C7229342F6D900BF00BF0C373E
S1132830BD465DF8047B704704207146084202D00F
S1132840EFF3098001E0EFF3088081690A884BF611
S1132850AB639A4200D0FEE702318161202101601E
S1132860704700BF80B485B000AF78607B681B0CF4
S113287003F1804303F58E23FB60FB6819687B68D2
S11328809BB201229A40FB680A431A6000BF1437C6
S1132890BD465DF8047B704780B483B000AF7860B8
S11328A00B467B8013467B707B8803F001039BB24D
S11328B0002B13D07B78002B08D07B681B889BB23D
S11328C023F480439AB27B681A8007E07B681B88F4
S11328D09BB243F480439AB27B681A807B8803F0EE
S11328E002039BB2002B13D07B78002B08D07B68AB
S11328F05B889BB223F480439AB27B685A8007E0DA
S11329007B685B889BB243F480439AB27B685A80AD
S113291000BF0C37BD465DF8047B704780B483B0BC
S113292000AF78600B467B8013467B707B8803F096
S113293001039BB2002B13D07B78002B08D07B685B
S11329401B889BB243F480539AB27B681A8007E0D9
S11329507B681B889BB223F480539AB27B681A80ED
S11329607B8803F002039BB2002B13D07B78002BEF
S113297008D07B685B889BB243F480539AB27B682F
S11329805A8007E07B685B889BB223F480539AB239
S11329907B685A8000BF0C37BD465DF8047B7047E6
S11329A080B483B000AF78600B467B8013467B70A5
S11329B07B8803F001039BB2002B17D07B78002B9C
S11329C00AD07B68B3F89C309BB223F001039AB21F
S11329D07B68A3F89C2009E07B68B3F89C309BB229
S11329E043F001039AB27B68A3F89C207B8803F030
S11329F002039BB2002B17D07B78002B0AD07B6894
S1132A00B3F89C309BB223F002039AB27B68A3F81C
S1132A109C2009E07B68B3F89C309BB243F002032E
S1132A209AB27B68A3F89C2000BF0C37BD465DF8C2
S1132A30047B704780B483B000AF78600B467B8022
S1132A407B8803F001039BB2002B07D07B681B88B3
S1132A509BB243F400539AB27B681A807B8803F0DC
S1132A6002039BB2002B07D07B685B889BB243F4C4
S1132A7000539AB27B685A8000BF0C37BD465DF89C
S1132A80047B704780B483B000AF78600B467B80D2
S1132A9013467B707B8803F001039BB2002B15D097
S1132AA07B78002B0AD07B681B889BB26FEA434378
S1132AB06FEA53439AB27B681A8007E07B681B88ED
S1132AC09BB2C3F30E039AB27B681A807B8803F02F
S1132AD002039BB2002B15D07B78002B0AD07B68B5
S1132AE05B889BB26FEA43436FEA53439AB27B68B5
S1132AF05A8007E07B685B889BB2C3F30E039AB2EB
S1132B007B685A8000BF0C37BD465DF8047B704774
S1132B1080B485B000AF78600B467B800023FB81D6
S1132B207B8803F008039BB2002B03D0FB8943F49A
S1132B300063FB817B8803F001039BB2002B03D06D
S1132B40FB8943F48063FB817B8803F004039BB21D
S1132B50002B03D0FB8943F40073FB817B8803F0D3
S1132B6002039BB2002B03D0FB8943F48073FB81E7
S1132B707B681B889AB2FB89DB439BB213409AB2F1
S1132B807B681A807B8803F010039BB2002B07D06C
S1132B907B685B889BB223F400639AB27B685A809B
S1132BA000BF1437BD465DF8047B704780B485B020
S1132BB000AF78600023FB817B685B8A9BB223F4BF
S1132BC0FF4323F07F039BB2B3F5004F03D1FB898E
S1132BD043F00803FB817B685B8A9BB203F4804368
S1132BE09BB2B3F5804F03D1FB8943F01003FB8103
S1132BF07B685B8A9BB203F400639BB2B3F5006FFE
S1132C0003D1FB8943F02003FB817B685B8A9BB281
S1132C1003F480539BB2B3F5805F03D1FB8943F087
S1132C204003FB817B685B8A9BB203F480639BB2A5
S1132C30B3F5806F03D1FB8943F00103FB817B680B
S1132C405B8A9BB203F400739BB2B3F5007F03D19C
S1132C50FB8943F00203FB817B685B8A9BB203F42C
S1132C6080739BB2B3F5807F03D1FB8943F00403E7
S1132C70FB817B68B3F89C309BB203F480639BB206
S1132C80B3F5806F03D1FB8943F08003FB817B683C
S1132C90B3F89C309BB203F400639BB2B3F5006FAE
S1132CA003D1FB8943F48073FB81FB8918461437F5
S1132CB0BD465DF8047B704780B485B000AF786092
S1132CC00B467B800023FB817B8803F020039BB2AF
S1132CD0002B03D0FB8943F40063FB817B8803F062
S1132CE040039BB2002B03D0FB8943F48053FB8148
S1132CF07B68FA895A8200BF1437BD465DF8047BAD
S1132D00704780B500AFFEF7F5F90346184680BD5D
S1132D1080B582B000AFFEF771FA3860FEF780FB31
S1132D200346DB083A689A4205D83B68002B02D078
S1132D303B687B6001E000237B607B6818460837B2
S1132D40BD4680BD80B485B000AF78607B681B0C45
S1132D5003F1804303F58E23FB60FB6819687B68ED
S1132D609BB201229A40FB680A431A6000BF1437E1
S1132D70BD465DF8047B704780B483B000AF7860D3
S1132D800B46FB701346BB70BB78002B0BD07B68E3
S1132D905A6EFB78DB000433012101FA03F31A4372
S1132DA07B685A660BE07B685A6EFB78DB00043361
S1132DB0012101FA03F3DB431A407B685A6600BF22
S1132DC00C37BD465DF8047B704780B483B000AF18
S1132DD078600B46FB701346BB70BB78002B0BD09E
S1132DE07B685A6EFB78DB000133012101FA03F39F
S1132DF01A437B685A660BE07B685A6EFB78DB00EB
S1132E000133012101FA03F3DB431A407B685A665C
S1132E1000BF0C37BD465DF8047B704780B483B0B7
S1132E2000AF786039603B6803F40073002B05D071
S1132E307B681B6823F080027B681A603B6803F49C
S1132E408073002B05D07B685B6F23F080027B6866
S1132E505A673B6803F48063002B05D07B68DB6E04
S1132E6023F080027B68DA667B681A6D3B68DBB20C
S1132E70DB431A407B681A6500BF0C37BD465DF81A
S1132E80047B704780B487B000AFF860B960134624
S1132E90FB7101237B61FB79002B05D17A69BB6847
S1132EA09A40FB689A6004E07A69BB689A40FB68C0
S1132EB05A6000BF1C37BD465DF8047B704780B57F
S1132EC000AFFEF7C5FFBFF34F8F00BF00BF80BD4B
S1132ED080B500AFFEF7D0FFBFF34F8F00BF00BF38
S1132EE080BD80B400AF00BFBD465DF8047B704771
S1132EF080B400AF00BFBD465DF8047B704780B46A
S1132F0000AF00BFBD465DF8047B704780B400AFDE
S1132F1000BFBD465DF8047B704780B485B000AF48
S1132F2078607B681B0C03F1804303F58E23FB6000
S1132F30FB6819687B689BB201229A40FB680A43CC
S1132F401A6000BF1437BD465DF8047B704780B437
S1132F5085B000AFF860B9601346FB71FB68BA68CE
S1132F6053F8223023F4E062FB791B0203F4E0639C
S1132F7042EA0301FB68BA6843F8221000BF143721
S1132F80BD465DF8047B704780B500AFFEF7A6FF31
S1132F9000BF80BD08B5FFF7B7F9BDE80840FDF7ED
S1132FA037BA00F0E4B9C368826923F0200310B58E
S1132FB0C360836A9A4204460ED000F0B4F8E36812
S1132FC023F4405323F0100343F01003E360A36A97
S1132FD0A3612369E3622360E36823F4804323F05D
S1132FE04003E36010BDCB6823F4002270B50C46A7
S1132FF0CA609906054602D52046FFF7D4FFD4E9F6
S113300002365A1C10DAB0050ED4C3F1FF2303F5BF
S11330107F03FE33A360236846F490365A1CE660AF
S113302022601D70E8B270BD41F28A023240022A69
S113303007D0002346F08006A360E6604FF0FF301F
S1133040F1E74AF210033340B3F5004F0AD10021EF
S11330502046FFF7B9F8E368990602D52046FFF742
S1133060A2FFE66846F4903316F4706FE3600ED165
S1133070606900F0A1F900B372051ED504F12403C0
S1133080236123600123E36146F49233E36013F484
S1133090106F2268266926D0E36A9A422CBFC6EBD9
S11330A00201C6EB0301B9B9731CE3622360E3694F
S11330B023635A1EA2603570B4E74FF48070FFF7A3
S11330C073F8E26820614FF48073E36146F494334B
S11330D01A432060E260DAE722463046FEF7CAFF70
S11330E00028E1D0AAE7511CEDB221601570E26A14
S11330F0206890422CBFC6EB0001C6EB0201E269D6
S113310022635B0503D40A2D01D08A4209DC002323
S1133110E6622660A36022463046FEF7ABFF002835
S11331208CD128467FE738B501680569C36A04462F
S1133130C06820F40022E26000F08202022A02D079
S11331404FF0FF3038BD10F48030FBD0994238BFC7
S113315019468D4208D1E368E562002023F48033E8
S11331602560A060E360EDE72246491B2846FEF790
S113317081FF0028EFD0E3E7A8B14FF0805340F877
S11331800C3C50F8042C72B11368B3F1805F0AD17F
S113319050F8083C516803330B4440F8083C9368EA
S11331A040F8043CEDE7704738B505460C4615F881
S11331B0010B70B1A368013B002BA36004DB2368FF
S11331C05A1C22601870F2E72146FFF70CFF431CDB
S11331D0EDD138BD70B5C468A50708D0B2F5007F3D
S11331E011D0B2F5806F04D0B2F5807F0BD00120EE
S11331F008E000F124010123224301610160C3615D
S1133200C260002070BD5E1E6FF07F45AE42F3D3F6
S1133210EDE710B5431C8207044614D1204654F848
S1133220042BA2F1013121EA020111F0803FF5D013
S1133230D1B281B112F47F4F0BD012F47F0F14BFBF
S11332402046033003E010F8012B002AE3D1C01A12
S113325010BD0230FBE70130F9E770B50D460646B4
S11332601046144600F02DF82B78722B17D0772BCC
S113327018D0612B23D1082348F2020215F8011F4C
S11332802B2912D0622915D01B07E260666104D590
S1133290022200212046FEF797FF204670BD00233E
S11332A00122EBE704230222E8E742F0030243F0A1
S11332B00203E3E742F0040243F00103DEE70024E3
S11332C0EBE7F0B5C468A10789B0054622D0220710
S11332D018D4D0E90467FFF771F8384600F060F8B5
S11332E0230502D53046FFF747FFA40DA40514F1CA
S11332F0A54F07D1296A2022684600F06FF8684676
S113330000F00BF83C2200212846FFF74AFE00207B
S113331009B0F0BD4FF0FF30FAE710B50446FFF7EF
S113332078FF01462046BDE8104000F04BB8C36862
S113333070B513F00306044611D09B0611D5856AB7
S1133340FFF731FEE36823F44053E3602046FFF7C0
S1133350EAFE0022064629462046FEF735FF30469F
S113336070BD816905680D4401696D1AEAE7034679
S113337013F0030F0ED101F0FF0141EA012141EAEC
S11333800141043A24BF43F8041BB2F10402F9D208
S113339002F10402013A24BF03F8011BFAE7704763
S11333A003B469460220ABBE02B0704703B4694659
S11333B00C20ABBE02B0704703B469460920ABBE13
S11333C002B0704703B469460E20ABBE02B070472A
S11333D003B469460A20ABBE02B070470FB4694615
S11333E00D20ABBE04B070470FB469460520ABBED8
S11333F004B0704766736C5F636164632E633A392B
S113340032203A20696E7374616E6365203C2041FA
S1133410525241595F53495A4528735F636164634B
S113342042617365732900FF66736C5F6361646353
S11334302E633A313130203A204E554C4C20213DF8
S113344020636F6E6669670066736C5F63616463B3
S11334502E633A313739203A204E554C4C20213DC9
S113346020636F6E6669670066736C5F6361646393
S11334702E633A323136203A204E554C4C20213DB1
S113348020636F6E6669670066736C5F6361646373
S11334902E633A323530203A204E554C4C20213D93
S11334A020636F6E6669670066736C5F6361646353
S11334B02E633A323836203A204E554C4C20213D6A
S11334C020636F6E6669670066736C5F6361646333
S11334D02E633A333136203A204E554C4C20213D50
S11334E020636F6E66696700100020008000000191
S11334F0400080000002000466736C5F63616463D3
S11335002E633A363738203A204E554C4C20213D14
S113351020636F6E6669670066736C5F63616463E2
S11335202E633A363739203A2073616D706C6549E1
S11335306E646578203C204144435F52534C545F91
S1133540434F554E5400FFFF66736C5F636C6F63AB
S11335506B2E633A323131203A20305520213D2000
S1133560675F7874616C30467265710066736C5F76
S1133570636C6F636B2E633A333336203A20675F94
S11335807874616C304672657100FFFF66736C5F1E
S1133590636C6F636B2E633A333538203A20675F70
S11335A07874616C304672657100FFFF66736C5FFE
S11335B0636C6F636B2E633A363639203A206D6341
S11335C067706C6C30636C6B00FFFFFF8002DC0281
S11335D00005B80580079508000A710B00800340B8
S11335E000900340000000000060024018003C10FE
S11335F019003C100000000006003C1066736C5F6C
S113360066746D2E633A3830203A20696E737461A3
S11336106E6365203C2066746D4172726179436FFC
S1133620756E740066736C5F66746D2E633A39311F
S1133630203A202D3120213D2046534C5F46454100
S1133640545552455F46544D5F4348414E4E454C98
S11336505F434F554E546E28626173652900FFFF26
S113366066736C5F66746D2E633A313532203A208E
S11336702D3120213D2063686E6C436F756E74009C
S113368066736C5F66746D2E633A323233203A206F
S1133690636F6E66696700FF66736C5F66746D2E98
S11336A0633A333332203A20636F6E6669672021B0
S11336B03D204E554C4C00FF66736C5F66746D2E56
S11336C0633A333836203A204E554C4C20213D2065
S11336D063686E6C506172616D73000066736C5F39
S11336E066746D2E633A333837203A2030552021E2
S11336F03D20737263436C6F636B5F487A00000014
S113370066736C5F66746D2E633A333838203A20E2
S1133710305520213D2070776D467265715F487A7F
S11337200000000066736C5F66746D2E633A333874
S113373039203A20305520213D206E756D4F664367
S1133740686E6C730000000066736C5F66746D2EA7
S1133750633A333931203A202D3120213D2046531C
S11337604C5F464541545552455F46544D5F43486E
S1133770414E4E454C5F434F554E546E2862617323
S1133780652900FF66736C5F66746D2E633A353786
S113379033203A202D3120213D2046534C5F4645AD
S11337A041545552455F46544D5F4348414E4E4542
S11337B04C5F434F554E546E28626173652900FF78
S11337C066736C5F6770696F2E633A313030203AEC
S11337D0204E554C4C20213D20636F6E6669670076
S11337E00101FFFF030000002A2A2A206173736588
S11337F07274206661696C6564203A20002A2A2A62
S1133800205F437379735F616C6C6F6320666169D9
S10F38106C65640A0072007700FFFFFF83
S10B381C0080000000093D00DA
S90301F902
